:100000000C9463000C948B000C948B000C948B006C
:100010000C948B000C948B000C948B000C948B0034
:100020000C948B000C948B000C948B000C948B0024
:100030000C948B000C948B000C948B000C948B0014
:100040000C943B090C948B000C94FC060C948B00D4
:100050000C948B000C948B000C948B000C948B00F4
:100060000C948B000C948B000000000024002700EF
:100070002A0000000000250028002B0000000000DE
:1000800023002600290004040404040404040202DA
:100090000202020203030303030301020408102007
:1000A0004080010204081020010204081020000012
:1000B0000007000201000003040600000000000029
:1000C0000000FD01F10711241FBECFEFD4E0DEBF19
:1000D000CDBF11E0A0E0B1E0EEE6F6E102C0059090
:1000E0000D92A039B107D9F712E0A0E9B1E001C043
:1000F0001D92A339B107E1F710E0C6ECD0E004C0CF
:100100002297FE010E94310BC23CD107C9F70E9421
:10011000F5060C94350B0C940000CF93DF93BC01D3
:100120008230910510F462E070E0A0919102B091EC
:100130009202ED01E0E0F0E040E050E021C0888173
:1001400099818617970769F48A819B81309719F006
:100150009383828304C09093920280939102FE0164
:1001600034C06817790738F44115510519F0841720
:10017000950708F4AC01FE018A819B819C01E9018D
:100180002097E9F641155105A9F1CA01861B970B85
:10019000049708F4BA01E0E0F0E02AC08D919C9148
:1001A000119784179507F9F46417750781F412966F
:1001B0008D919C911397309719F09383828304C09B
:1001C0009093920280939102FD0132964CC0CA0135
:1001D000861B970BFD01E80FF91F6193719302973E
:1001E0008D939C9340C0FD01828193819C01D90134
:1001F0001097A1F680918F0290919002892B41F483
:1002000080918101909182019093900280938F025E
:1002100040918301509184014115510541F44DB73E
:100220005EB780917F0190918001481B590B20910E
:100230008F0230919002CA01821B930B8617970799
:1002400080F0AB014E5F5F4F8417950750F0420F6F
:10025000531F5093900240938F02F9016193719361
:1002600002C0E0E0F0E0CF01DF91CF910895CF939D
:10027000DF93009709F450C0EC0122971B821A8289
:10028000A0919102B0919202109709F140E050E0E4
:10029000AC17BD0708F1BB83AA83FE012191319100
:1002A000E20FF31FAE17BF0779F48D919C91119760
:1002B000280F391F2E5F3F4F3983288312968D9167
:1002C0009C9113979B838A834115510571F4D093B8
:1002D0009202C093910220C012968D919C91139727
:1002E000AD01009711F0DC01D3CFFA01D383C283B3
:1002F00021913191E20FF31FCE17DF0769F4888156
:100300009981280F391F2E5F3F4FFA0131832083D7
:100310008A819B8193838283DF91CF910895FB0132
:10032000DC014150504048F001900D920020C9F787
:1003300001C01D9241505040E0F70895FC0181E05A
:1003400090E00190061609F4CF010020D1F7019743
:100350000895FB0151915523A9F0BF01DC014D9196
:1003600045174111E1F759F4CD010190002049F002
:100370004D9140154111C9F3FB014111EFCF81E0CF
:1003800090E001970895FC01603DA9F0613D28F4DB
:10039000603959F0603CA1F40BC0603E19F0643F35
:1003A00079F40CC052A741A7089554A743A7089514
:1003B00056A745A7089550AB47A7089552AB41AB48
:1003C0000895FC01138214821582DC0180E01696E8
:1003D0001C9216978F5F11968032C9F716A210A64D
:1003E00017A203A8F4A9E02D309709F00995089504
:1003F000FC0110820E94E101089580E991E00E94D1
:10040000F80108954F925F926F927F928F929F9220
:10041000AF92BF92CF92DF92EF92FF920F93DF9352
:10042000CF9300D0CDB7DEB72B017A013A83298371
:100430008DE061E00E945E0A00E089819A813C01C2
:10044000882477FC8094982C5701CC24B7FCC09466
:10045000DC2C11C0C401B3010E9483098DE061E06E
:100460000E947E0AC601B5010E9483098DE060E00A
:100470000E947E0A0F5F802F90E08415950554F34B
:100480000F900F90CF91DF910F91FF90EF90DF9041
:10049000CF90BF90AF909F908F907F906F905F9024
:1004A0004F9008950F931F938C018DE061E00E949F
:1004B0005E0AC80162E070E048EC50E020E931E0FB
:1004C0000E9402026CE271E080E090E00E948309E9
:1004D000C80162E070E041E050E024E030E00E94BA
:1004E00002026CE271E080E090E00E948309C801A2
:1004F00060E070E048EC50E020E931E00E94020248
:100500001F910F910895AF92BF92CF92DF92EF9219
:10051000FF920F931F93062F6A0194E7A92E92E092
:10052000B92E10E00F7010700069222717FD20957A
:10053000322FC501B901A80120E030E00E94260950
:10054000C60160E870E00E94CB0AAC01662757FD47
:100550006095762FC50120E030E00E942609CC0C82
:10056000CD2CCC1CDD08EE24D7FCE094FE2CC5017C
:10057000B701A60120E030E00E9426091F910F91EB
:10058000FF90EF90DF90CF90BF90AF9008950F93C2
:100590001F9304E712E0C80149EF50E060E070E00B
:1005A00020E030E00E942609C80142E050E060E00F
:1005B00070E020E030E00E942609C80140E050E0F1
:1005C00060E070E020E030E00E9426091F910F916A
:1005D000089584E792E047EF50E060E070E020E0AB
:1005E00030E00E942609089584E792E040EF50E051
:1005F00060E070E020E030E00E9426090895CF928C
:10060000DF92EF92FF920F931F937C0134E7C32E8A
:1006100032E0D32EAC01662757FD6095762F4F77D9
:10062000507060707070C60120E030E00E942609B2
:10063000EE0CEF2CEE1CFF080027F7FC0095102FA6
:100640008FE790E0A0E0B0E0E822F9220A231B2324
:10065000C601B801A70120E030E00E9426091F91E1
:100660000F91FF90EF90DF90CF900895BF92CF92BF
:10067000DF92EF92FF920F931F93CF93DF93E62EBB
:10068000B42ED22EC32E0E94F402FF2400E010E00C
:1006900084E792E0B801A70120E030E00E9426093B
:1006A0002D2D3C2DC901EC0110E005C0899190E091
:1006B0000E94FF021F5F1B15C8F30E94E902DF9131
:1006C000CF911F910F91FF90EF90DF90CF90BF904F
:1006D00008959A01FA0101900020E9F73197E41B8F
:1006E000F50B4E2F0E9436030895AB0161E70E947F
:1006F00069030895EF92FF920F931F937A01062FDB
:1007000010E00F701070006E222717FD2095322F19
:1007100084E792E0B901A80120E030E00E942609B8
:10072000C7010E94FF021F910F91FF90EF90089563
:1007300084E792E00E94A20790E00895AF92BF92F2
:10074000CF92DF92EF92FF920F931F93CF93DF939D
:100750008C01D62EC72EB42EA22E862F972F60E0A6
:1007600071E00E94A901EC018D2D9C2D6FE270E0DB
:100770000E949E01209771F07C010894E11CF11CFD
:10078000E114F10439F09E012E5F822F8E19D801F9
:100790008C930EC0AD2DBC2DFD0101900020E9F71A
:1007A000ED19EF5FD801EC932D2D3C2DC9017C0193
:1007B000F801808190E00E948D00FC01D801129622
:1007C0009C938E9311978C91E80FF11D10821196D6
:1007D000ED91FC911297B0821196ED91FC911297D8
:1007E000A18211968D919C9112974C9150E04250AC
:1007F00050400296B7010E948F01DF91CF911F9167
:100800000F91FF90EF90DF90CF90BF90AF90089541
:100810001F93CF93DF93EC018881882351F10E94CD
:10082000F40284E792E049E750E060E070E020E005
:1008300030E00E942609E981FA8184E792E0608134
:100840000E945F08E981FA8184E792E061810E9459
:100850005F0812E009C0E981FA81E10FF11D808192
:1008600090E00E94FF021F5F88811817A0F30E948A
:10087000E902DF91CF911F9108951F93CF93DF93EA
:10088000EC018E81813731F0893789F5CE010E94E4
:10089000080436C08DA99EA9892B91F18FA198A536
:1008A000019762E070E00E94CB0A162F862F90E03D
:1008B0000E948D00AC01DC0121E030E011C0FE019E
:1008C000E20FF11D96819C932F5FFE01E20FF11D57
:1008D0008681879588278795890F8D932F5F3F5F46
:1008E000311768F3EDA9FEA9CA01099509C0EFA95E
:1008F000F8AD309729F06FA161502796AE010995A8
:10090000DF91CF911F910895CF93DF93EC0184E79E
:1009100092E00E94B607AC018EA1882391F0473F78
:10092000510529F41EA2CE010E943D0493C08FA15F
:1009300098A5FE01E80FF91F4683019698A78FA39B
:1009400089C08B81882309F446C0403851050CF0DA
:1009500042C081508B83FE01E80FF11D468388233E
:1009600009F078C08C81882309F474C0803D49F176
:10097000813D28F4803959F0803C59F51FC0803EF4
:1009800019F0843F31F513C0E9A5FAA502C0EBA523
:10099000FCA53097F1F06E8170E07695762F662792
:1009A000779567958F81680F711D8D8111C0E9A9B9
:1009B000FAA9309771F06E818F8109C0EDA5FEA56F
:1009C00002C0EFA5F8A9309721F06E818D8170E00B
:1009D00009951C823FC0403F510514F09A0106C0A2
:1009E0009A01207F3070842F8F708D83203E3105D7
:1009F000F1F0213E310554F4203C3105D1F0203D89
:100A00003105B9F02039310529F511C0243F3105F0
:100A100071F0253F310524F4203F3105D9F40DC094
:100A2000293F310599F02F3F3105A1F40BC082E039
:100A300001C081E08B832C830DC081E08EA318A6BA
:100A40001FA208C0CE010E94E10104C080E991E02C
:100A50000E94C702DF91CF9108950F931F938C01DD
:100A600084E792E040E052EC61E070E00E943907D8
:100A7000C8010E9452026CE271E080E090E00E94A6
:100A80008309C8010E94C7021F910F910895813008
:100A900059F0813018F0823051F408C08BB16C7F6E
:100AA0008370862B8BB9089565B9089568B9089548
:100AB000482F2091C9013091CA01672B61F481E070
:100AC00090E002C0880F991F4A95E2F780959095B3
:100AD0002823392309C081E090E002C0880F991FC4
:100AE0004A95E2F7282B392B3093CA012093C9018C
:100AF0000895E82FF0E0E353FE4F6083823021F445
:100B00001092CA011092C9010895FF920F931F938A
:100B1000CF93DF93182F883050F08E3020F4FF24CD
:100B2000F39408E009C0863108F44AC003C082305B
:100B300008F44AC0FF2400E0C12FD0E0FE01ED52CE
:100B4000FE4F608361307105D9F063307105E1F0CB
:100B5000672B79F5812F60E00E945E0AEF2DF0E0AF
:100B6000E751FE4FC01BD10981E090E002C0880F21
:100B7000991FCA95E2F7809520818223808324C043
:100B8000812F60E00E947E0A812F61E00E945E0A50
:100B9000EF2DF0E0E751FE4FC01BD10981E090E05E
:100BA00002C0880F991FCA95E2F72081282B208365
:100BB0000BC080E991E065E071E00E94750304C01C
:100BC00082E0F82E0EE0B8CFDF91CF911F910F9108
:100BD000FF900895FF920F931F93F82E8B0163E00F
:100BE00070E00E9485058F2DB8010E94050A1F91B3
:100BF0000F91FF9008950F931F93CF93DF93082FCA
:100C000090E0FC01E751FE4F108110951623EC0196
:100C1000C053DE4F8881811779F080E991E0602F21
:100C2000412F50E00E948302188380E991E0602FF9
:100C3000412F50E00E948302DF91CF911F910F91CD
:100C400008951F9380E991E066E071E042E020E0C2
:100C50000E949E0380E991E060EE4AEE55E00E941A
:100C6000C30180E991E060E947E455E00E94C301D7
:100C700080E991E060EC48E555E00E94C30180E91D
:100C800091E060ED49E755E00E94C30180E991E001
:100C900064EF45E855E00E94C30183E08093E901D9
:100CA00080EC8093EA011092EB0110E0812F61E06B
:100CB00070E00E9485051F5F1E30C1F715B818B897
:100CC0001BB81092CD011092CE011092CF0180E995
:100CD00091E00E942D051F910895CF93DF93C0E00E
:100CE000D0E0FE01E353FE4F8081882391F0C130B4
:100CF00049F0C13018F0C23061F407C069B16C7FAF
:100D000080E005C063B181E002C066B182E00E946C
:100D1000FB052196C330D10521F7DF91CF910895CE
:100D2000CF93DF930E946D06209186023091870257
:100D300040918802509189028091EC019091ED01DF
:100D4000A091EE01B091EF0182179307A407B507B8
:100D500008F048C08091860290918702A091880295
:100D6000B09189024396A11DB11D8093EC0190932F
:100D7000ED01A093EE01B093EF0104C080E991E092
:100D80000E94840480E991E00E949803892BB1F7C6
:100D90001092CC011092CB011EC08091C90190919C
:100DA000CA010C2E02C0959587950A94E2F780FF40
:100DB00009C08C2F0E94E709AC0180E991E06C2FFB
:100DC0000E947A038091CB019091CC01019690937F
:100DD000CC018093CB01C091CB01D091CC01C83024
:100DE000D105DCF2DF91CF9108950E94AD090E94F8
:100DF00021060E949006FDCF1F920F920FB60F9210
:100E000011242F933F934F935F936F937F938F930F
:100E10009F93AF93BF93EF93FF934091C600E091F0
:100E20007002F0917102CF01019660E870E00E94BB
:100E3000CB0A9C01809172029091730228173907A6
:100E400039F0E051FE4F40833093710220937002DD
:100E5000FF91EF91BF91AF919F918F917F916F9192
:100E60005F914F913F912F910F900FBE0F901F9068
:100E70001895AF92BF92CF92DF92EF92FF920F93AD
:100E80001F93CF93DF936C017A018B01DC011496E1
:100E9000AD90BC901597CB01BA0122E030E040E064
:100EA00050E00E94000B205C3D4B404F5F4FCA0159
:100EB000B901A80197010E94000BC901DA0101974D
:100EC000A109B109292F3A2F4B2F552747FD5A95D4
:100ED0000196A11DB11DE5012883E601EE81FF8188
:100EE00081508083EA85FB85208141E050E0CA0182
:100EF0000E8402C0880F991F0A94E2F7282B2083E2
:100F0000EA85FB852081CA010F8402C0880F991FE2
:100F10000A94E2F7282B2083EA85FB8580810888E4
:100F200002C0440F551F0A94E2F7842B8083DF919F
:100F3000CF911F910F91FF90EF90DF90CF90BF90D6
:100F4000AF900895DC011296ED91FC911397E05853
:100F5000FF4F8191919180589F4F20813181821B59
:100F6000930B60E870E00E94CB0A0895CF93DF9363
:100F7000DC011296ED91FC911397EF01CE57DF4FF4
:100F800048815981E058FF4F80819181E058F040BD
:100F90008417950719F42FEF3FEF0CC0E40FF51FEE
:100FA0002081CA01019660E870E00E94CB0A998313
:100FB000888330E0C901DF91CF910895FC01A085BD
:100FC000B18521898C9190E0022E02C0959587957C
:100FD0000A94E2F780FFF6CF0484F585E02D608364
:100FE00008958AE891E0909375028093740280EFEF
:100FF00091E0909377028093760285EC90E0909355
:1010000079028093780284EC90E090937B02809345
:101010007A0280EC90E090937D0280937C0281ECD8
:1010200090E090937F0280937E0286EC90E0909314
:1010300081028093800284E08093820283E0809327
:10104000830287E08093840285E08093850208957F
:101050000F931F93CF93DF938C01EB0109C021966F
:10106000D801ED91FC910190F081E02DC801099526
:1010700068816623A1F7DF91CF911F910F910895A9
:10108000EF92FF920F931F93CF93DF938C017B011D
:10109000EA010CC0D7016D917D01D801ED91FC9161
:1010A0000190F081E02DC80109952197209791F7D3
:1010B000DF91CF911F910F91FF90EF900895DC0188
:1010C000ED91FC910190F081E02D099508952F920A
:1010D0003F924F925F926F927F928F929F92AF92C8
:1010E000BF92CF92DF92EF92FF920F931F93DF9305
:1010F000CF93CDB7DEB7A0970FB6F894DEBF0FBE83
:10110000CDBF1C016A017B014115510561057105C7
:1011100049F4DC01ED91FC910190F081E02D60E358
:10112000099554C0882499245401422E55246624DC
:10113000772401E010E00C0F1D1F080D191DC701D9
:10114000B601A30192010E94DE0AF80160830894AF
:10115000811C911CA11CB11CC701B601A301920105
:101160000E94DE0AC901DA016C017D01C114D104BB
:10117000E104F104F1F681E0E82EF12CEC0EFD1E05
:10118000E80CF91C3E010894611C711CD501C401D6
:101190000197A109B1096C01C818D90814C0F6015A
:1011A000EE0DFF1D60816A3010F4605D01C0695C66
:1011B000D101ED91FC910190F081E02DC1010995E3
:1011C0000894E108F1086E147F0449F7A0960FB661
:1011D000F894DEBF0FBECDBFCF91DF911F910F916D
:1011E000FF90EF90DF90CF90BF90AF909F908F9047
:1011F0007F906F905F904F903F902F900895EF9267
:10120000FF920F931F93CF93DF93EC017A018B0131
:1012100077FF0FC0E881F9810190F081E02D6DE248
:10122000099510950095F094E094E11CF11C011DC6
:10123000111DCE01B801A7012AE00E946708DF91C5
:10124000CF911F910F91FF90EF900895DC01211530
:10125000310541F4ED91FC910190F081E02D642F76
:10126000099508952A30310519F40E94FF08089560
:101270000E94670808951F920F920FB60F921124D3
:101280002F933F938F939F93AF93BF9380918A0245
:1012900090918B02A0918C02B0918D0230918E02C0
:1012A0000196A11DB11D232F2D5F2D3720F02D5745
:1012B0000196A11DB11D20938E0280938A02909306
:1012C0008B02A0938C02B0938D0280918602909144
:1012D0008702A0918802B09189020196A11DB11DDB
:1012E0008093860290938702A0938802B09389022C
:1012F000BF91AF919F918F913F912F910F900FBE12
:101300000F901F901895EF92FF920F931F937B0100
:101310008C018FB7F89440918A0250918B026091B2
:101320008C0270918D028FBF2FB7F89480918A0242
:1013300090918B02A0918C02B0918D022FBF841BE3
:10134000950BA60BB70BE816F9060A071B0760F703
:101350001F910F91FF90EF900895789484B582606B
:1013600084BD84B5816084BD85B5826085BD85B549
:10137000816085BDEEE6F0E0808181608083E1E8F8
:10138000F0E0808182608083808181608083E0E8FA
:10139000F0E0808181608083E1EBF0E08081846017
:1013A0008083E0EBF0E0808181608083EAE7F0E019
:1013B000808184608083808182608083808181607D
:1013C00080838081806880831092C1000895877037
:1013D000909185019295990F990F907C982B9093FD
:1013E0007C0080917A00806480937A0080917A00FA
:1013F00086FDFCCF2091780040917900942F80E009
:1014000030E0282B392BC90108951F93CF93DF9328
:10141000182FEB0161E00E945E0AE12FF0E0E25537
:10142000FF4F8491833051F48091800080688093D5
:101430008000D0938900C09388003CC0843051F470
:1014400080918000806280938000D0938B00C09355
:101450008A0030C0813039F4209729F184B5806842
:1014600084BDC7BD27C0823039F42097E1F084B530
:10147000806284BDC8BD1EC0863041F48091B0003A
:1014800080688093B000C093B30014C0873041F4EB
:101490008091B00080628093B000C093B4000AC015
:1014A000C038D1051CF4812F60E002C0812F61E0BB
:1014B0000E947E0ADF91CF911F910895282F30E07E
:1014C000C90186569F4FFC0194912A573F4FF9015D
:1014D0008491882391F0E82FF0E0EE0FFF1FE85988
:1014E000FF4FA591B491662329F48C91909589239F
:1014F0008C9308958C91892B8C930895482F50E0FC
:10150000CA0182559F4FFC012491CA0186569F4F04
:10151000FC0194914A575F4FFA0134913323D1F182
:10152000222331F1233021F4809180008F7705C090
:10153000243031F4809180008F7D8093800018C02A
:10154000213019F484B58F7704C0223021F484B59A
:101550008F7D84BD0DC0263021F48091B0008F773F
:1015600005C0273029F48091B0008F7D8093B000B2
:10157000E32FF0E0EE0FFF1FEE58FF4FA591B4915F
:10158000662329F48C91909589238C9308958C91EE
:10159000892B8C93089597FB092E07260AD077FD97
:1015A00004D049D006D000201AF4709561957F4F81
:1015B0000895F6F7909581959F4F0895A1E21A2E10
:1015C000AA1BBB1BFD010DC0AA1FBB1FEE1FFF1FE7
:1015D000A217B307E407F50720F0A21BB30BE40B37
:1015E000F50B661F771F881F991F1A9469F760957E
:1015F0007095809590959B01AC01BD01CF01089538
:1016000097FB092E05260ED057FD04D0D7DF0AD050
:10161000001C38F450954095309521953F4F4F4F21
:101620005F4F0895F6F790958095709561957F4F7F
:101630008F4F9F4F0895AA1BBB1B51E107C0AA1FE4
:10164000BB1FA617B70710F0A61BB70B881F991F63
:101650005A95A9F780959095BC01CD010895EE0F9C
:0E166000FF1F0590F491E02D0994F894FFCF40
:10166E002E63707000002F55736572732F6C656555
:10167E002F70642F616374696F6E20706F74656E66
:10168E007469616C2F6162737472616374696F6ED9
:10169E00732F4669726D6174612D322E30626574DE
:1016AE0061332F4669726D6174612F6578616D705B
:1016BE006C65732F5374616E646172644669726DEA
:1016CE006174612F6170706C65742F5374616E64F8
:1016DE006172644669726D6174612E637070002070
:1016EE0000930200000100000000DE0728084008F9
:00000001FF
